{
  "_format": "hh-sol-artifact-1",
  "contractName": "nftwab",
  "sourceName": "contracts/nftwab.sol",
  "address": "0x9aE250b66DCF74C4909E40777B2D17C22AAB9af3",
  "abi": [
    {
      "inputs": [],
      "stateMutability": "nonpayable",
      "type": "constructor"
    },
    {
      "inputs": [
        {
          "internalType": "address",
          "name": "sender",
          "type": "address"
        },
        {
          "internalType": "uint256",
          "name": "tokenId",
          "type": "uint256"
        },
        {
          "internalType": "address",
          "name": "owner",
          "type": "address"
        }
      ],
      "name": "ERC721IncorrectOwner",
      "type": "error"
    },
    {
      "inputs": [
        {
          "internalType": "address",
          "name": "operator",
          "type": "address"
        },
        {
          "internalType": "uint256",
          "name": "tokenId",
          "type": "uint256"
        }
      ],
      "name": "ERC721InsufficientApproval",
      "type": "error"
    },
    {
      "inputs": [
        {
          "internalType": "address",
          "name": "approver",
          "type": "address"
        }
      ],
      "name": "ERC721InvalidApprover",
      "type": "error"
    },
    {
      "inputs": [
        {
          "internalType": "address",
          "name": "operator",
          "type": "address"
        }
      ],
      "name": "ERC721InvalidOperator",
      "type": "error"
    },
    {
      "inputs": [
        {
          "internalType": "address",
          "name": "owner",
          "type": "address"
        }
      ],
      "name": "ERC721InvalidOwner",
      "type": "error"
    },
    {
      "inputs": [
        {
          "internalType": "address",
          "name": "receiver",
          "type": "address"
        }
      ],
      "name": "ERC721InvalidReceiver",
      "type": "error"
    },
    {
      "inputs": [
        {
          "internalType": "address",
          "name": "sender",
          "type": "address"
        }
      ],
      "name": "ERC721InvalidSender",
      "type": "error"
    },
    {
      "inputs": [
        {
          "internalType": "uint256",
          "name": "tokenId",
          "type": "uint256"
        }
      ],
      "name": "ERC721NonexistentToken",
      "type": "error"
    },
    {
      "anonymous": false,
      "inputs": [
        {
          "indexed": true,
          "internalType": "address",
          "name": "owner",
          "type": "address"
        },
        {
          "indexed": true,
          "internalType": "address",
          "name": "approved",
          "type": "address"
        },
        {
          "indexed": true,
          "internalType": "uint256",
          "name": "tokenId",
          "type": "uint256"
        }
      ],
      "name": "Approval",
      "type": "event"
    },
    {
      "anonymous": false,
      "inputs": [
        {
          "indexed": true,
          "internalType": "address",
          "name": "owner",
          "type": "address"
        },
        {
          "indexed": true,
          "internalType": "address",
          "name": "operator",
          "type": "address"
        },
        {
          "indexed": false,
          "internalType": "bool",
          "name": "approved",
          "type": "bool"
        }
      ],
      "name": "ApprovalForAll",
      "type": "event"
    },
    {
      "anonymous": false,
      "inputs": [
        {
          "indexed": false,
          "internalType": "uint256",
          "name": "_fromTokenId",
          "type": "uint256"
        },
        {
          "indexed": false,
          "internalType": "uint256",
          "name": "_toTokenId",
          "type": "uint256"
        }
      ],
      "name": "BatchMetadataUpdate",
      "type": "event"
    },
    {
      "anonymous": false,
      "inputs": [
        {
          "indexed": false,
          "internalType": "uint256",
          "name": "_tokenId",
          "type": "uint256"
        }
      ],
      "name": "MetadataUpdate",
      "type": "event"
    },
    {
      "anonymous": false,
      "inputs": [
        {
          "indexed": true,
          "internalType": "address",
          "name": "from",
          "type": "address"
        },
        {
          "indexed": true,
          "internalType": "address",
          "name": "to",
          "type": "address"
        },
        {
          "indexed": true,
          "internalType": "uint256",
          "name": "tokenId",
          "type": "uint256"
        }
      ],
      "name": "Transfer",
      "type": "event"
    },
    {
      "inputs": [
        {
          "internalType": "address",
          "name": "to",
          "type": "address"
        },
        {
          "internalType": "uint256",
          "name": "tokenId",
          "type": "uint256"
        }
      ],
      "name": "approve",
      "outputs": [],
      "stateMutability": "nonpayable",
      "type": "function"
    },
    {
      "inputs": [
        {
          "internalType": "address",
          "name": "owner",
          "type": "address"
        }
      ],
      "name": "balanceOf",
      "outputs": [
        {
          "internalType": "uint256",
          "name": "",
          "type": "uint256"
        }
      ],
      "stateMutability": "view",
      "type": "function"
    },
    {
      "inputs": [
        {
          "internalType": "string",
          "name": "_tokenURI",
          "type": "string"
        }
      ],
      "name": "createToken",
      "outputs": [
        {
          "internalType": "uint256",
          "name": "",
          "type": "uint256"
        }
      ],
      "stateMutability": "nonpayable",
      "type": "function"
    },
    {
      "inputs": [
        {
          "internalType": "uint256",
          "name": "tokenId",
          "type": "uint256"
        }
      ],
      "name": "executeSale",
      "outputs": [],
      "stateMutability": "payable",
      "type": "function"
    },
    {
      "inputs": [],
      "name": "getAllListedNFTs",
      "outputs": [
        {
          "components": [
            {
              "internalType": "uint256",
              "name": "tokenId",
              "type": "uint256"
            },
            {
              "internalType": "address payable",
              "name": "owner",
              "type": "address"
            },
            {
              "internalType": "address payable",
              "name": "seller",
              "type": "address"
            }
          ],
          "internalType": "struct nftwab.NFTListing[]",
          "name": "",
          "type": "tuple[]"
        }
      ],
      "stateMutability": "view",
      "type": "function"
    },
    {
      "inputs": [
        {
          "internalType": "uint256",
          "name": "tokenId",
          "type": "uint256"
        }
      ],
      "name": "getApproved",
      "outputs": [
        {
          "internalType": "address",
          "name": "",
          "type": "address"
        }
      ],
      "stateMutability": "view",
      "type": "function"
    },
    {
      "inputs": [],
      "name": "getCurrentTokenId",
      "outputs": [
        {
          "internalType": "uint256",
          "name": "",
          "type": "uint256"
        }
      ],
      "stateMutability": "view",
      "type": "function"
    },
    {
      "inputs": [],
      "name": "getListingFeePercent",
      "outputs": [
        {
          "internalType": "uint256",
          "name": "",
          "type": "uint256"
        }
      ],
      "stateMutability": "view",
      "type": "function"
    },
    {
      "inputs": [],
      "name": "getMyNFTs",
      "outputs": [
        {
          "components": [
            {
              "internalType": "uint256",
              "name": "tokenId",
              "type": "uint256"
            },
            {
              "internalType": "address payable",
              "name": "owner",
              "type": "address"
            },
            {
              "internalType": "address payable",
              "name": "seller",
              "type": "address"
            }
          ],
          "internalType": "struct nftwab.NFTListing[]",
          "name": "",
          "type": "tuple[]"
        }
      ],
      "stateMutability": "view",
      "type": "function"
    },
    {
      "inputs": [
        {
          "internalType": "uint256",
          "name": "_tokenId",
          "type": "uint256"
        }
      ],
      "name": "getNFTListing",
      "outputs": [
        {
          "components": [
            {
              "internalType": "uint256",
              "name": "tokenId",
              "type": "uint256"
            },
            {
              "internalType": "address payable",
              "name": "owner",
              "type": "address"
            },
            {
              "internalType": "address payable",
              "name": "seller",
              "type": "address"
            }
          ],
          "internalType": "struct nftwab.NFTListing",
          "name": "",
          "type": "tuple"
        }
      ],
      "stateMutability": "view",
      "type": "function"
    },
    {
      "inputs": [
        {
          "internalType": "address",
          "name": "owner",
          "type": "address"
        },
        {
          "internalType": "address",
          "name": "operator",
          "type": "address"
        }
      ],
      "name": "isApprovedForAll",
      "outputs": [
        {
          "internalType": "bool",
          "name": "",
          "type": "bool"
        }
      ],
      "stateMutability": "view",
      "type": "function"
    },
    {
      "inputs": [],
      "name": "listingFeePercent",
      "outputs": [
        {
          "internalType": "uint256",
          "name": "",
          "type": "uint256"
        }
      ],
      "stateMutability": "view",
      "type": "function"
    },
    {
      "inputs": [],
      "name": "marketplaceOwner",
      "outputs": [
        {
          "internalType": "address payable",
          "name": "",
          "type": "address"
        }
      ],
      "stateMutability": "view",
      "type": "function"
    },
    {
      "inputs": [],
      "name": "name",
      "outputs": [
        {
          "internalType": "string",
          "name": "",
          "type": "string"
        }
      ],
      "stateMutability": "view",
      "type": "function"
    },
    {
      "inputs": [
        {
          "internalType": "uint256",
          "name": "tokenId",
          "type": "uint256"
        }
      ],
      "name": "ownerOf",
      "outputs": [
        {
          "internalType": "address",
          "name": "",
          "type": "address"
        }
      ],
      "stateMutability": "view",
      "type": "function"
    },
    {
      "inputs": [
        {
          "internalType": "address",
          "name": "from",
          "type": "address"
        },
        {
          "internalType": "address",
          "name": "to",
          "type": "address"
        },
        {
          "internalType": "uint256",
          "name": "tokenId",
          "type": "uint256"
        }
      ],
      "name": "safeTransferFrom",
      "outputs": [],
      "stateMutability": "nonpayable",
      "type": "function"
    },
    {
      "inputs": [
        {
          "internalType": "address",
          "name": "from",
          "type": "address"
        },
        {
          "internalType": "address",
          "name": "to",
          "type": "address"
        },
        {
          "internalType": "uint256",
          "name": "tokenId",
          "type": "uint256"
        },
        {
          "internalType": "bytes",
          "name": "data",
          "type": "bytes"
        }
      ],
      "name": "safeTransferFrom",
      "outputs": [],
      "stateMutability": "nonpayable",
      "type": "function"
    },
    {
      "inputs": [
        {
          "internalType": "address",
          "name": "operator",
          "type": "address"
        },
        {
          "internalType": "bool",
          "name": "approved",
          "type": "bool"
        }
      ],
      "name": "setApprovalForAll",
      "outputs": [],
      "stateMutability": "nonpayable",
      "type": "function"
    },
    {
      "inputs": [
        {
          "internalType": "bytes4",
          "name": "interfaceId",
          "type": "bytes4"
        }
      ],
      "name": "supportsInterface",
      "outputs": [
        {
          "internalType": "bool",
          "name": "",
          "type": "bool"
        }
      ],
      "stateMutability": "view",
      "type": "function"
    },
    {
      "inputs": [],
      "name": "symbol",
      "outputs": [
        {
          "internalType": "string",
          "name": "",
          "type": "string"
        }
      ],
      "stateMutability": "view",
      "type": "function"
    },
    {
      "inputs": [
        {
          "internalType": "uint256",
          "name": "tokenId",
          "type": "uint256"
        }
      ],
      "name": "tokenURI",
      "outputs": [
        {
          "internalType": "string",
          "name": "",
          "type": "string"
        }
      ],
      "stateMutability": "view",
      "type": "function"
    },
    {
      "inputs": [
        {
          "internalType": "address",
          "name": "from",
          "type": "address"
        },
        {
          "internalType": "address",
          "name": "to",
          "type": "address"
        },
        {
          "internalType": "uint256",
          "name": "tokenId",
          "type": "uint256"
        }
      ],
      "name": "transferFrom",
      "outputs": [],
      "stateMutability": "nonpayable",
      "type": "function"
    },
    {
      "inputs": [
        {
          "internalType": "uint256",
          "name": "_listingFeePercent",
          "type": "uint256"
        }
      ],
      "name": "updateListingFeePercent",
      "outputs": [],
      "stateMutability": "nonpayable",
      "type": "function"
    }
  ],
  "bytecode": "0x6080604052601460085534801561001557600080fd5b506040518060400160405280600681526020017f6e667477616200000000000000000000000000000000000000000000000000008152506040518060400160405280600681526020017f4e465457414200000000000000000000000000000000000000000000000000008152508160009081610091919061033a565b5080600190816100a1919061033a565b50505033600760006101000a81548173ffffffffffffffffffffffffffffffffffffffff021916908373ffffffffffffffffffffffffffffffffffffffff16021790555061040c565b600081519050919050565b7f4e487b7100000000000000000000000000000000000000000000000000000000600052604160045260246000fd5b7f4e487b7100000000000000000000000000000000000000000000000000000000600052602260045260246000fd5b6000600282049050600182168061016b57607f821691505b60208210810361017e5761017d610124565b5b50919050565b60008190508160005260206000209050919050565b60006020601f8301049050919050565b600082821b905092915050565b6000600883026101e67fffffffffffffffffffffffffffffffffffffffffffffffffffffffffffffffff826101a9565b6101f086836101a9565b95508019841693508086168417925050509392505050565b6000819050919050565b6000819050919050565b600061023761023261022d84610208565b610212565b610208565b9050919050565b6000819050919050565b6102518361021c565b61026561025d8261023e565b8484546101b6565b825550505050565b600090565b61027a61026d565b610285818484610248565b505050565b5b818110156102a95761029e600082610272565b60018101905061028b565b5050565b601f8211156102ee576102bf81610184565b6102c884610199565b810160208510156102d7578190505b6102eb6102e385610199565b83018261028a565b50505b505050565b600082821c905092915050565b6000610311600019846008026102f3565b1980831691505092915050565b600061032a8383610300565b9150826002028217905092915050565b610343826100ea565b67ffffffffffffffff81111561035c5761035b6100f5565b5b6103668254610153565b6103718282856102ad565b600060209050601f8311600181146103a45760008415610392578287015190505b61039c858261031e565b865550610404565b601f1984166103b286610184565b60005b828110156103da578489015182556001820191506020850194506020810190506103b5565b868310156103f757848901516103f3601f891682610300565b8355505b6001600288020188555050505b505050505050565b6135468061041b6000396000f3fe6080604052600436106101405760003560e01c80636151ff2e116100b65780639b1225c41161006f5780639b1225c414610486578063a22cb465146104a2578063ac6a9185146104cb578063b88d4fde146104f4578063c87b56dd1461051d578063e985e9c51461055a57610140565b80636151ff2e14610360578063629cb2e41461038b5780636352211e146103b6578063650025a0146103f357806370a082311461041e57806395d89b411461045b57610140565b80630ea59c4b116101085780630ea59c4b1461023e57806323b872dd1461027b57806342842e0e146102a457806345576f94146102cd5780634b58ffaa1461030a578063561892361461033557610140565b806301ffc9a71461014557806306fc12451461018257806306fdde03146101ad578063081812fc146101d8578063095ea7b314610215575b600080fd5b34801561015157600080fd5b5061016c60048036038101906101679190612686565b610597565b60405161017991906126ce565b60405180910390f35b34801561018e57600080fd5b506101976105f8565b6040516101a49190612702565b60405180910390f35b3480156101b957600080fd5b506101c2610602565b6040516101cf91906127ad565b60405180910390f35b3480156101e457600080fd5b506101ff60048036038101906101fa91906127fb565b610694565b60405161020c9190612869565b60405180910390f35b34801561022157600080fd5b5061023c600480360381019061023791906128b0565b6106b0565b005b34801561024a57600080fd5b50610265600480360381019061026091906127fb565b6106c6565b6040516102729190612962565b60405180910390f35b34801561028757600080fd5b506102a2600480360381019061029d919061297d565b6107a9565b005b3480156102b057600080fd5b506102cb60048036038101906102c6919061297d565b6108ab565b005b3480156102d957600080fd5b506102f460048036038101906102ef9190612b05565b6108cb565b6040516103019190612702565b60405180910390f35b34801561031657600080fd5b5061031f610912565b60405161032c9190612c3f565b60405180910390f35b34801561034157600080fd5b5061034a610aaf565b6040516103579190612702565b60405180910390f35b34801561036c57600080fd5b50610375610ab9565b6040516103829190612702565b60405180910390f35b34801561039757600080fd5b506103a0610abf565b6040516103ad9190612c3f565b60405180910390f35b3480156103c257600080fd5b506103dd60048036038101906103d891906127fb565b610e63565b6040516103ea9190612869565b60405180910390f35b3480156103ff57600080fd5b50610408610e75565b6040516104159190612c70565b60405180910390f35b34801561042a57600080fd5b5061044560048036038101906104409190612c8b565b610e9b565b6040516104529190612702565b60405180910390f35b34801561046757600080fd5b50610470610f55565b60405161047d91906127ad565b60405180910390f35b6104a0600480360381019061049b91906127fb565b610fe7565b005b3480156104ae57600080fd5b506104c960048036038101906104c49190612ce4565b6111d2565b005b3480156104d757600080fd5b506104f260048036038101906104ed91906127fb565b6111e8565b005b34801561050057600080fd5b5061051b60048036038101906105169190612dc5565b611282565b005b34801561052957600080fd5b50610544600480360381019061053f91906127fb565b61129f565b60405161055191906127ad565b60405180910390f35b34801561056657600080fd5b50610581600480360381019061057c9190612e48565b6113b2565b60405161058e91906126ce565b60405180910390f35b6000634906490660e01b7bffffffffffffffffffffffffffffffffffffffffffffffffffffffff1916827bffffffffffffffffffffffffffffffffffffffffffffffffffffffff191614806105f157506105f082611446565b5b9050919050565b6000600854905090565b60606000805461061190612eb7565b80601f016020809104026020016040519081016040528092919081815260200182805461063d90612eb7565b801561068a5780601f1061065f5761010080835404028352916020019161068a565b820191906000526020600020905b81548152906001019060200180831161066d57829003601f168201915b5050505050905090565b600061069f82611528565b506106a9826115b0565b9050919050565b6106c282826106bd6115ed565b6115f5565b5050565b6106ce6125cd565b600b6000838152602001908152602001600020604051806060016040529081600082015481526020016001820160009054906101000a900473ffffffffffffffffffffffffffffffffffffffff1673ffffffffffffffffffffffffffffffffffffffff1673ffffffffffffffffffffffffffffffffffffffff1681526020016002820160009054906101000a900473ffffffffffffffffffffffffffffffffffffffff1673ffffffffffffffffffffffffffffffffffffffff1673ffffffffffffffffffffffffffffffffffffffff16815250509050919050565b600073ffffffffffffffffffffffffffffffffffffffff168273ffffffffffffffffffffffffffffffffffffffff160361081b5760006040517f64a0ae920000000000000000000000000000000000000000000000000000000081526004016108129190612869565b60405180910390fd5b600061082f838361082a6115ed565b611607565b90508373ffffffffffffffffffffffffffffffffffffffff168173ffffffffffffffffffffffffffffffffffffffff16146108a5578382826040517f64283d7b00000000000000000000000000000000000000000000000000000000815260040161089c93929190612ee8565b60405180910390fd5b50505050565b6108c683838360405180602001604052806000815250611282565b505050565b6000600960008154809291906108e090612f4e565b9190505550600060095490506108f63382611821565b610900818461183f565b6109098161189b565b80915050919050565b60606000600954905060008167ffffffffffffffff811115610937576109366129da565b5b60405190808252806020026020018201604052801561097057816020015b61095d6125cd565b8152602001906001900390816109555790505b5090506000805b83811015610aa557600060018261098e9190612f96565b90506000600b6000838152602001908152602001600020905080604051806060016040529081600082015481526020016001820160009054906101000a900473ffffffffffffffffffffffffffffffffffffffff1673ffffffffffffffffffffffffffffffffffffffff1673ffffffffffffffffffffffffffffffffffffffff1681526020016002820160009054906101000a900473ffffffffffffffffffffffffffffffffffffffff1673ffffffffffffffffffffffffffffffffffffffff1673ffffffffffffffffffffffffffffffffffffffff1681525050858581518110610a7c57610a7b612fca565b5b6020026020010181905250600184610a949190612f96565b935050508080600101915050610977565b5081935050505090565b6000600954905090565b60085481565b60606000600954905060008060005b83811015610be0573373ffffffffffffffffffffffffffffffffffffffff16600b6000600184610afe9190612f96565b815260200190815260200160002060010160009054906101000a900473ffffffffffffffffffffffffffffffffffffffff1673ffffffffffffffffffffffffffffffffffffffff161480610bbf57503373ffffffffffffffffffffffffffffffffffffffff16600b6000600184610b759190612f96565b815260200190815260200160002060020160009054906101000a900473ffffffffffffffffffffffffffffffffffffffff1673ffffffffffffffffffffffffffffffffffffffff16145b15610bd3578280610bcf90612f4e565b9350505b8080600101915050610ace565b5060008267ffffffffffffffff811115610bfd57610bfc6129da565b5b604051908082528060200260200182016040528015610c3657816020015b610c236125cd565b815260200190600190039081610c1b5790505b50905060005b84811015610e58573373ffffffffffffffffffffffffffffffffffffffff16600b6000600184610c6c9190612f96565b815260200190815260200160002060010160009054906101000a900473ffffffffffffffffffffffffffffffffffffffff1673ffffffffffffffffffffffffffffffffffffffff161480610d2d57503373ffffffffffffffffffffffffffffffffffffffff16600b6000600184610ce39190612f96565b815260200190815260200160002060020160009054906101000a900473ffffffffffffffffffffffffffffffffffffffff1673ffffffffffffffffffffffffffffffffffffffff16145b15610e4b576000600182610d419190612f96565b90506000600b6000838152602001908152602001600020905080604051806060016040529081600082015481526020016001820160009054906101000a900473ffffffffffffffffffffffffffffffffffffffff1673ffffffffffffffffffffffffffffffffffffffff1673ffffffffffffffffffffffffffffffffffffffff1681526020016002820160009054906101000a900473ffffffffffffffffffffffffffffffffffffffff1673ffffffffffffffffffffffffffffffffffffffff1673ffffffffffffffffffffffffffffffffffffffff1681525050848681518110610e2f57610e2e612fca565b5b60200260200101819052508480610e4590612f4e565b95505050505b8080600101915050610c3c565b508094505050505090565b6000610e6e82611528565b9050919050565b600760009054906101000a900473ffffffffffffffffffffffffffffffffffffffff1681565b60008073ffffffffffffffffffffffffffffffffffffffff168273ffffffffffffffffffffffffffffffffffffffff1603610f0e5760006040517f89c62b64000000000000000000000000000000000000000000000000000000008152600401610f059190612869565b60405180910390fd5b600360008373ffffffffffffffffffffffffffffffffffffffff1673ffffffffffffffffffffffffffffffffffffffff168152602001908152602001600020549050919050565b606060018054610f6490612eb7565b80601f0160208091040260200160405190810160405280929190818152602001828054610f9090612eb7565b8015610fdd5780601f10610fb257610100808354040283529160200191610fdd565b820191906000526020600020905b815481529060010190602001808311610fc057829003601f168201915b5050505050905090565b6000600b6000838152602001908152602001600020905060008160020160009054906101000a900473ffffffffffffffffffffffffffffffffffffffff1690503373ffffffffffffffffffffffffffffffffffffffff168260010160009054906101000a900473ffffffffffffffffffffffffffffffffffffffff1673ffffffffffffffffffffffffffffffffffffffff16036110b9576040517f08c379a00000000000000000000000000000000000000000000000000000000081526004016110b090613045565b60405180910390fd5b6110e88260010160009054906101000a900473ffffffffffffffffffffffffffffffffffffffff163385611993565b338260010160006101000a81548173ffffffffffffffffffffffffffffffffffffffff021916908373ffffffffffffffffffffffffffffffffffffffff160217905550338260020160006101000a81548173ffffffffffffffffffffffffffffffffffffffff021916908373ffffffffffffffffffffffffffffffffffffffff160217905550600a600081548092919061118190612f4e565b91905055508073ffffffffffffffffffffffffffffffffffffffff166108fc349081150290604051600060405180830381858888f193505050501580156111cc573d6000803e3d6000fd5b50505050565b6111e46111dd6115ed565b8383611b00565b5050565b600760009054906101000a900473ffffffffffffffffffffffffffffffffffffffff1673ffffffffffffffffffffffffffffffffffffffff163373ffffffffffffffffffffffffffffffffffffffff1614611278576040517f08c379a000000000000000000000000000000000000000000000000000000000815260040161126f906130d7565b60405180910390fd5b8060088190555050565b61128d8484846107a9565b61129984848484611c6f565b50505050565b60606112aa82611528565b5060006006600084815260200190815260200160002080546112cb90612eb7565b80601f01602080910402602001604051908101604052809291908181526020018280546112f790612eb7565b80156113445780601f1061131957610100808354040283529160200191611344565b820191906000526020600020905b81548152906001019060200180831161132757829003601f168201915b505050505090506000611355611e26565b9050600081510361136a5781925050506113ad565b60008251111561139f578082604051602001611387929190613133565b604051602081830303815290604052925050506113ad565b6113a884611e3d565b925050505b919050565b6000600560008473ffffffffffffffffffffffffffffffffffffffff1673ffffffffffffffffffffffffffffffffffffffff16815260200190815260200160002060008373ffffffffffffffffffffffffffffffffffffffff1673ffffffffffffffffffffffffffffffffffffffff16815260200190815260200160002060009054906101000a900460ff16905092915050565b60007f80ac58cd000000000000000000000000000000000000000000000000000000007bffffffffffffffffffffffffffffffffffffffffffffffffffffffff1916827bffffffffffffffffffffffffffffffffffffffffffffffffffffffff1916148061151157507f5b5e139f000000000000000000000000000000000000000000000000000000007bffffffffffffffffffffffffffffffffffffffffffffffffffffffff1916827bffffffffffffffffffffffffffffffffffffffffffffffffffffffff1916145b80611521575061152082611ea6565b5b9050919050565b60008061153483611f10565b9050600073ffffffffffffffffffffffffffffffffffffffff168173ffffffffffffffffffffffffffffffffffffffff16036115a757826040517f7e27328900000000000000000000000000000000000000000000000000000000815260040161159e9190612702565b60405180910390fd5b80915050919050565b60006004600083815260200190815260200160002060009054906101000a900473ffffffffffffffffffffffffffffffffffffffff169050919050565b600033905090565b6116028383836001611f4d565b505050565b60008061161384611f10565b9050600073ffffffffffffffffffffffffffffffffffffffff168373ffffffffffffffffffffffffffffffffffffffff161461165557611654818486612112565b5b600073ffffffffffffffffffffffffffffffffffffffff168173ffffffffffffffffffffffffffffffffffffffff16146116e657611697600085600080611f4d565b6001600360008373ffffffffffffffffffffffffffffffffffffffff1673ffffffffffffffffffffffffffffffffffffffff168152602001908152602001600020600082825403925050819055505b600073ffffffffffffffffffffffffffffffffffffffff168573ffffffffffffffffffffffffffffffffffffffff1614611769576001600360008773ffffffffffffffffffffffffffffffffffffffff1673ffffffffffffffffffffffffffffffffffffffff168152602001908152602001600020600082825401925050819055505b846002600086815260200190815260200160002060006101000a81548173ffffffffffffffffffffffffffffffffffffffff021916908373ffffffffffffffffffffffffffffffffffffffff160217905550838573ffffffffffffffffffffffffffffffffffffffff168273ffffffffffffffffffffffffffffffffffffffff167fddf252ad1be2c89b69c2b068fc378daa952ba7f163c4a11628f55a4df523b3ef60405160405180910390a4809150509392505050565b61183b8282604051806020016040528060008152506121d6565b5050565b8060066000848152602001908152602001600020908161185f9190613303565b507ff8e1a15aba9398e019f0b49df1a4fde98ee17ae345cb5f6b5e2c27f5033e8ce78260405161188f9190612702565b60405180910390a15050565b60405180606001604052808281526020013373ffffffffffffffffffffffffffffffffffffffff1681526020013373ffffffffffffffffffffffffffffffffffffffff16815250600b60008381526020019081526020016000206000820151816000015560208201518160010160006101000a81548173ffffffffffffffffffffffffffffffffffffffff021916908373ffffffffffffffffffffffffffffffffffffffff16021790555060408201518160020160006101000a81548173ffffffffffffffffffffffffffffffffffffffff021916908373ffffffffffffffffffffffffffffffffffffffff16021790555090505050565b600073ffffffffffffffffffffffffffffffffffffffff168273ffffffffffffffffffffffffffffffffffffffff1603611a055760006040517f64a0ae920000000000000000000000000000000000000000000000000000000081526004016119fc9190612869565b60405180910390fd5b6000611a1383836000611607565b9050600073ffffffffffffffffffffffffffffffffffffffff168173ffffffffffffffffffffffffffffffffffffffff1603611a8657816040517f7e273289000000000000000000000000000000000000000000000000000000008152600401611a7d9190612702565b60405180910390fd5b8373ffffffffffffffffffffffffffffffffffffffff168173ffffffffffffffffffffffffffffffffffffffff1614611afa578382826040517f64283d7b000000000000000000000000000000000000000000000000000000008152600401611af193929190612ee8565b60405180910390fd5b50505050565b600073ffffffffffffffffffffffffffffffffffffffff168273ffffffffffffffffffffffffffffffffffffffff1603611b7157816040517f5b08ba18000000000000000000000000000000000000000000000000000000008152600401611b689190612869565b60405180910390fd5b80600560008573ffffffffffffffffffffffffffffffffffffffff1673ffffffffffffffffffffffffffffffffffffffff16815260200190815260200160002060008473ffffffffffffffffffffffffffffffffffffffff1673ffffffffffffffffffffffffffffffffffffffff16815260200190815260200160002060006101000a81548160ff0219169083151502179055508173ffffffffffffffffffffffffffffffffffffffff168373ffffffffffffffffffffffffffffffffffffffff167f17307eab39ab6107e8899845ad3d59bd9653f200f220920489ca2b5937696c3183604051611c6291906126ce565b60405180910390a3505050565b60008373ffffffffffffffffffffffffffffffffffffffff163b1115611e20578273ffffffffffffffffffffffffffffffffffffffff1663150b7a02611cb36115ed565b8685856040518563ffffffff1660e01b8152600401611cd5949392919061342a565b6020604051808303816000875af1925050508015611d1157506040513d601f19601f82011682018060405250810190611d0e919061348b565b60015b611d95573d8060008114611d41576040519150601f19603f3d011682016040523d82523d6000602084013e611d46565b606091505b506000815103611d8d57836040517f64a0ae92000000000000000000000000000000000000000000000000000000008152600401611d849190612869565b60405180910390fd5b805181602001fd5b63150b7a0260e01b7bffffffffffffffffffffffffffffffffffffffffffffffffffffffff1916817bffffffffffffffffffffffffffffffffffffffffffffffffffffffff191614611e1e57836040517f64a0ae92000000000000000000000000000000000000000000000000000000008152600401611e159190612869565b60405180910390fd5b505b50505050565b606060405180602001604052806000815250905090565b6060611e4882611528565b506000611e53611e26565b90506000815111611e735760405180602001604052806000815250611e9e565b80611e7d846121f2565b604051602001611e8e929190613133565b6040516020818303038152906040525b915050919050565b60007f01ffc9a7000000000000000000000000000000000000000000000000000000007bffffffffffffffffffffffffffffffffffffffffffffffffffffffff1916827bffffffffffffffffffffffffffffffffffffffffffffffffffffffff1916149050919050565b60006002600083815260200190815260200160002060009054906101000a900473ffffffffffffffffffffffffffffffffffffffff169050919050565b8080611f865750600073ffffffffffffffffffffffffffffffffffffffff168273ffffffffffffffffffffffffffffffffffffffff1614155b156120ba576000611f9684611528565b9050600073ffffffffffffffffffffffffffffffffffffffff168373ffffffffffffffffffffffffffffffffffffffff161415801561200157508273ffffffffffffffffffffffffffffffffffffffff168173ffffffffffffffffffffffffffffffffffffffff1614155b8015612014575061201281846113b2565b155b1561205657826040517fa9fbf51f00000000000000000000000000000000000000000000000000000000815260040161204d9190612869565b60405180910390fd5b81156120b857838573ffffffffffffffffffffffffffffffffffffffff168273ffffffffffffffffffffffffffffffffffffffff167f8c5be1e5ebec7d5bd14f71427d1e84f3dd0314c0f7b2291e5b200ac8c7c3b92560405160405180910390a45b505b836004600085815260200190815260200160002060006101000a81548173ffffffffffffffffffffffffffffffffffffffff021916908373ffffffffffffffffffffffffffffffffffffffff16021790555050505050565b61211d8383836122c0565b6121d157600073ffffffffffffffffffffffffffffffffffffffff168373ffffffffffffffffffffffffffffffffffffffff160361219257806040517f7e2732890000000000000000000000000000000000000000000000000000000081526004016121899190612702565b60405180910390fd5b81816040517f177e802f0000000000000000000000000000000000000000000000000000000081526004016121c89291906134b8565b60405180910390fd5b505050565b6121e08383612381565b6121ed6000848484611c6f565b505050565b6060600060016122018461247a565b01905060008167ffffffffffffffff8111156122205761221f6129da565b5b6040519080825280601f01601f1916602001820160405280156122525781602001600182028036833780820191505090505b509050600082602001820190505b6001156122b5578080600190039150507f3031323334353637383961626364656600000000000000000000000000000000600a86061a8153600a85816122a9576122a86134e1565b5b04945060008503612260575b819350505050919050565b60008073ffffffffffffffffffffffffffffffffffffffff168373ffffffffffffffffffffffffffffffffffffffff161415801561237857508273ffffffffffffffffffffffffffffffffffffffff168473ffffffffffffffffffffffffffffffffffffffff161480612339575061233884846113b2565b5b8061237757508273ffffffffffffffffffffffffffffffffffffffff1661235f836115b0565b73ffffffffffffffffffffffffffffffffffffffff16145b5b90509392505050565b600073ffffffffffffffffffffffffffffffffffffffff168273ffffffffffffffffffffffffffffffffffffffff16036123f35760006040517f64a0ae920000000000000000000000000000000000000000000000000000000081526004016123ea9190612869565b60405180910390fd5b600061240183836000611607565b9050600073ffffffffffffffffffffffffffffffffffffffff168173ffffffffffffffffffffffffffffffffffffffff16146124755760006040517f73c6ac6e00000000000000000000000000000000000000000000000000000000815260040161246c9190612869565b60405180910390fd5b505050565b600080600090507a184f03e93ff9f4daa797ed6e38ed64bf6a1f01000000000000000083106124d8577a184f03e93ff9f4daa797ed6e38ed64bf6a1f01000000000000000083816124ce576124cd6134e1565b5b0492506040810190505b6d04ee2d6d415b85acef81000000008310612515576d04ee2d6d415b85acef8100000000838161250b5761250a6134e1565b5b0492506020810190505b662386f26fc10000831061254457662386f26fc10000838161253a576125396134e1565b5b0492506010810190505b6305f5e100831061256d576305f5e1008381612563576125626134e1565b5b0492506008810190505b6127108310612592576127108381612588576125876134e1565b5b0492506004810190505b606483106125b557606483816125ab576125aa6134e1565b5b0492506002810190505b600a83106125c4576001810190505b80915050919050565b604051806060016040528060008152602001600073ffffffffffffffffffffffffffffffffffffffff168152602001600073ffffffffffffffffffffffffffffffffffffffff1681525090565b6000604051905090565b600080fd5b600080fd5b60007fffffffff0000000000000000000000000000000000000000000000000000000082169050919050565b6126638161262e565b811461266e57600080fd5b50565b6000813590506126808161265a565b92915050565b60006020828403121561269c5761269b612624565b5b60006126aa84828501612671565b91505092915050565b60008115159050919050565b6126c8816126b3565b82525050565b60006020820190506126e360008301846126bf565b92915050565b6000819050919050565b6126fc816126e9565b82525050565b600060208201905061271760008301846126f3565b92915050565b600081519050919050565b600082825260208201905092915050565b60005b8381101561275757808201518184015260208101905061273c565b60008484015250505050565b6000601f19601f8301169050919050565b600061277f8261271d565b6127898185612728565b9350612799818560208601612739565b6127a281612763565b840191505092915050565b600060208201905081810360008301526127c78184612774565b905092915050565b6127d8816126e9565b81146127e357600080fd5b50565b6000813590506127f5816127cf565b92915050565b60006020828403121561281157612810612624565b5b600061281f848285016127e6565b91505092915050565b600073ffffffffffffffffffffffffffffffffffffffff82169050919050565b600061285382612828565b9050919050565b61286381612848565b82525050565b600060208201905061287e600083018461285a565b92915050565b61288d81612848565b811461289857600080fd5b50565b6000813590506128aa81612884565b92915050565b600080604083850312156128c7576128c6612624565b5b60006128d58582860161289b565b92505060206128e6858286016127e6565b9150509250929050565b6128f9816126e9565b82525050565b600061290a82612828565b9050919050565b61291a816128ff565b82525050565b60608201600082015161293660008501826128f0565b5060208201516129496020850182612911565b50604082015161295c6040850182612911565b50505050565b60006060820190506129776000830184612920565b92915050565b60008060006060848603121561299657612995612624565b5b60006129a48682870161289b565b93505060206129b58682870161289b565b92505060406129c6868287016127e6565b9150509250925092565b600080fd5b600080fd5b7f4e487b7100000000000000000000000000000000000000000000000000000000600052604160045260246000fd5b612a1282612763565b810181811067ffffffffffffffff82111715612a3157612a306129da565b5b80604052505050565b6000612a4461261a565b9050612a508282612a09565b919050565b600067ffffffffffffffff821115612a7057612a6f6129da565b5b612a7982612763565b9050602081019050919050565b82818337600083830152505050565b6000612aa8612aa384612a55565b612a3a565b905082815260208101848484011115612ac457612ac36129d5565b5b612acf848285612a86565b509392505050565b600082601f830112612aec57612aeb6129d0565b5b8135612afc848260208601612a95565b91505092915050565b600060208284031215612b1b57612b1a612624565b5b600082013567ffffffffffffffff811115612b3957612b38612629565b5b612b4584828501612ad7565b91505092915050565b600081519050919050565b600082825260208201905092915050565b6000819050602082019050919050565b606082016000820151612b9060008501826128f0565b506020820151612ba36020850182612911565b506040820151612bb66040850182612911565b50505050565b6000612bc88383612b7a565b60608301905092915050565b6000602082019050919050565b6000612bec82612b4e565b612bf68185612b59565b9350612c0183612b6a565b8060005b83811015612c32578151612c198882612bbc565b9750612c2483612bd4565b925050600181019050612c05565b5085935050505092915050565b60006020820190508181036000830152612c598184612be1565b905092915050565b612c6a816128ff565b82525050565b6000602082019050612c856000830184612c61565b92915050565b600060208284031215612ca157612ca0612624565b5b6000612caf8482850161289b565b91505092915050565b612cc1816126b3565b8114612ccc57600080fd5b50565b600081359050612cde81612cb8565b92915050565b60008060408385031215612cfb57612cfa612624565b5b6000612d098582860161289b565b9250506020612d1a85828601612ccf565b9150509250929050565b600067ffffffffffffffff821115612d3f57612d3e6129da565b5b612d4882612763565b9050602081019050919050565b6000612d68612d6384612d24565b612a3a565b905082815260208101848484011115612d8457612d836129d5565b5b612d8f848285612a86565b509392505050565b600082601f830112612dac57612dab6129d0565b5b8135612dbc848260208601612d55565b91505092915050565b60008060008060808587031215612ddf57612dde612624565b5b6000612ded8782880161289b565b9450506020612dfe8782880161289b565b9350506040612e0f878288016127e6565b925050606085013567ffffffffffffffff811115612e3057612e2f612629565b5b612e3c87828801612d97565b91505092959194509250565b60008060408385031215612e5f57612e5e612624565b5b6000612e6d8582860161289b565b9250506020612e7e8582860161289b565b9150509250929050565b7f4e487b7100000000000000000000000000000000000000000000000000000000600052602260045260246000fd5b60006002820490506001821680612ecf57607f821691505b602082108103612ee257612ee1612e88565b5b50919050565b6000606082019050612efd600083018661285a565b612f0a60208301856126f3565b612f17604083018461285a565b949350505050565b7f4e487b7100000000000000000000000000000000000000000000000000000000600052601160045260246000fd5b6000612f59826126e9565b91507fffffffffffffffffffffffffffffffffffffffffffffffffffffffffffffffff8203612f8b57612f8a612f1f565b5b600182019050919050565b6000612fa1826126e9565b9150612fac836126e9565b9250828201905080821115612fc457612fc3612f1f565b5b92915050565b7f4e487b7100000000000000000000000000000000000000000000000000000000600052603260045260246000fd5b7f596f7520616c7265616479206f776e2074686973204e46540000000000000000600082015250565b600061302f601883612728565b915061303a82612ff9565b602082019050919050565b6000602082019050818103600083015261305e81613022565b9050919050565b7f4f6e6c79206f776e65722063616e2063616c6c20746869732066756e6374696f60008201527f6e00000000000000000000000000000000000000000000000000000000000000602082015250565b60006130c1602183612728565b91506130cc82613065565b604082019050919050565b600060208201905081810360008301526130f0816130b4565b9050919050565b600081905092915050565b600061310d8261271d565b61311781856130f7565b9350613127818560208601612739565b80840191505092915050565b600061313f8285613102565b915061314b8284613102565b91508190509392505050565b60008190508160005260206000209050919050565b60006020601f8301049050919050565b600082821b905092915050565b6000600883026131b97fffffffffffffffffffffffffffffffffffffffffffffffffffffffffffffffff8261317c565b6131c3868361317c565b95508019841693508086168417925050509392505050565b6000819050919050565b60006132006131fb6131f6846126e9565b6131db565b6126e9565b9050919050565b6000819050919050565b61321a836131e5565b61322e61322682613207565b848454613189565b825550505050565b600090565b613243613236565b61324e818484613211565b505050565b5b818110156132725761326760008261323b565b600181019050613254565b5050565b601f8211156132b75761328881613157565b6132918461316c565b810160208510156132a0578190505b6132b46132ac8561316c565b830182613253565b50505b505050565b600082821c905092915050565b60006132da600019846008026132bc565b1980831691505092915050565b60006132f383836132c9565b9150826002028217905092915050565b61330c8261271d565b67ffffffffffffffff811115613325576133246129da565b5b61332f8254612eb7565b61333a828285613276565b600060209050601f83116001811461336d576000841561335b578287015190505b61336585826132e7565b8655506133cd565b601f19841661337b86613157565b60005b828110156133a35784890151825560018201915060208501945060208101905061337e565b868310156133c057848901516133bc601f8916826132c9565b8355505b6001600288020188555050505b505050505050565b600081519050919050565b600082825260208201905092915050565b60006133fc826133d5565b61340681856133e0565b9350613416818560208601612739565b61341f81612763565b840191505092915050565b600060808201905061343f600083018761285a565b61344c602083018661285a565b61345960408301856126f3565b818103606083015261346b81846133f1565b905095945050505050565b6000815190506134858161265a565b92915050565b6000602082840312156134a1576134a0612624565b5b60006134af84828501613476565b91505092915050565b60006040820190506134cd600083018561285a565b6134da60208301846126f3565b9392505050565b7f4e487b7100000000000000000000000000000000000000000000000000000000600052601260045260246000fdfea26469706673582212209cf4134dae9be1a2b5373d2b769b356e00909fe0079654cdb5c23a1a653ed11c64736f6c634300081b0033",
  "linkReferences": {},
  "deployedLinkReferences": {}
}